{
  "_format": "hh-sol-artifact-1",
  "contractName": "InsurancePlatform",
  "sourceName": "contracts/Insurance.sol",
  "abi": [
    {
      "inputs": [],
      "stateMutability": "nonpayable",
      "type": "constructor"
    },
    {
      "anonymous": false,
      "inputs": [
        {
          "indexed": false,
          "internalType": "uint256",
          "name": "claimId",
          "type": "uint256"
        },
        {
          "indexed": false,
          "internalType": "uint256",
          "name": "policyId",
          "type": "uint256"
        },
        {
          "indexed": false,
          "internalType": "address",
          "name": "claimant",
          "type": "address"
        }
      ],
      "name": "ClaimSubmitted",
      "type": "event"
    },
    {
      "anonymous": false,
      "inputs": [
        {
          "indexed": false,
          "internalType": "uint256",
          "name": "claimId",
          "type": "uint256"
        },
        {
          "indexed": false,
          "internalType": "bool",
          "name": "approved",
          "type": "bool"
        }
      ],
      "name": "ClaimVerified",
      "type": "event"
    },
    {
      "anonymous": false,
      "inputs": [
        {
          "indexed": false,
          "internalType": "uint256",
          "name": "claimId",
          "type": "uint256"
        },
        {
          "indexed": false,
          "internalType": "address",
          "name": "claimant",
          "type": "address"
        },
        {
          "indexed": false,
          "internalType": "uint256",
          "name": "amount",
          "type": "uint256"
        }
      ],
      "name": "PayoutIssued",
      "type": "event"
    },
    {
      "anonymous": false,
      "inputs": [
        {
          "indexed": false,
          "internalType": "uint256",
          "name": "policyId",
          "type": "uint256"
        },
        {
          "indexed": false,
          "internalType": "string",
          "name": "policyType",
          "type": "string"
        },
        {
          "indexed": false,
          "internalType": "uint256",
          "name": "premium",
          "type": "uint256"
        },
        {
          "indexed": false,
          "internalType": "uint256",
          "name": "payoutAmount",
          "type": "uint256"
        }
      ],
      "name": "PolicyCreated",
      "type": "event"
    },
    {
      "anonymous": false,
      "inputs": [
        {
          "indexed": false,
          "internalType": "uint256",
          "name": "policyId",
          "type": "uint256"
        }
      ],
      "name": "PolicyDeactivated",
      "type": "event"
    },
    {
      "anonymous": false,
      "inputs": [
        {
          "indexed": false,
          "internalType": "address",
          "name": "user",
          "type": "address"
        },
        {
          "indexed": false,
          "internalType": "uint256",
          "name": "policyId",
          "type": "uint256"
        }
      ],
      "name": "PolicyPurchased",
      "type": "event"
    },
    {
      "inputs": [],
      "name": "claimCount",
      "outputs": [
        {
          "internalType": "uint256",
          "name": "",
          "type": "uint256"
        }
      ],
      "stateMutability": "view",
      "type": "function"
    },
    {
      "inputs": [
        {
          "internalType": "uint256",
          "name": "",
          "type": "uint256"
        }
      ],
      "name": "claims",
      "outputs": [
        {
          "internalType": "uint256",
          "name": "policyId",
          "type": "uint256"
        },
        {
          "internalType": "address",
          "name": "claimant",
          "type": "address"
        },
        {
          "internalType": "bool",
          "name": "verified",
          "type": "bool"
        },
        {
          "internalType": "bool",
          "name": "paidOut",
          "type": "bool"
        },
        {
          "internalType": "string",
          "name": "status",
          "type": "string"
        }
      ],
      "stateMutability": "view",
      "type": "function"
    },
    {
      "inputs": [
        {
          "internalType": "string",
          "name": "_policyType",
          "type": "string"
        },
        {
          "internalType": "uint256",
          "name": "_premium",
          "type": "uint256"
        },
        {
          "internalType": "uint256",
          "name": "_payoutAmount",
          "type": "uint256"
        },
        {
          "internalType": "uint256",
          "name": "_duration",
          "type": "uint256"
        }
      ],
      "name": "createPolicy",
      "outputs": [],
      "stateMutability": "nonpayable",
      "type": "function"
    },
    {
      "inputs": [
        {
          "internalType": "uint256",
          "name": "_policyId",
          "type": "uint256"
        }
      ],
      "name": "deactivatePolicy",
      "outputs": [],
      "stateMutability": "nonpayable",
      "type": "function"
    },
    {
      "inputs": [
        {
          "internalType": "uint256",
          "name": "_policyId",
          "type": "uint256"
        }
      ],
      "name": "getPolicyDetails",
      "outputs": [
        {
          "internalType": "uint256",
          "name": "id",
          "type": "uint256"
        },
        {
          "internalType": "string",
          "name": "policyType",
          "type": "string"
        },
        {
          "internalType": "uint256",
          "name": "premium",
          "type": "uint256"
        },
        {
          "internalType": "uint256",
          "name": "payoutAmount",
          "type": "uint256"
        },
        {
          "internalType": "uint256",
          "name": "duration",
          "type": "uint256"
        },
        {
          "internalType": "uint256",
          "name": "startTime",
          "type": "uint256"
        },
        {
          "internalType": "bool",
          "name": "active",
          "type": "bool"
        }
      ],
      "stateMutability": "view",
      "type": "function"
    },
    {
      "inputs": [
        {
          "internalType": "address",
          "name": "_user",
          "type": "address"
        }
      ],
      "name": "getUserPolicies",
      "outputs": [
        {
          "internalType": "uint256[]",
          "name": "",
          "type": "uint256[]"
        }
      ],
      "stateMutability": "view",
      "type": "function"
    },
    {
      "inputs": [
        {
          "internalType": "address",
          "name": "",
          "type": "address"
        },
        {
          "internalType": "uint256",
          "name": "",
          "type": "uint256"
        }
      ],
      "name": "hasClaimed",
      "outputs": [
        {
          "internalType": "bool",
          "name": "",
          "type": "bool"
        }
      ],
      "stateMutability": "view",
      "type": "function"
    },
    {
      "inputs": [],
      "name": "owner",
      "outputs": [
        {
          "internalType": "address",
          "name": "",
          "type": "address"
        }
      ],
      "stateMutability": "view",
      "type": "function"
    },
    {
      "inputs": [
        {
          "internalType": "uint256",
          "name": "",
          "type": "uint256"
        }
      ],
      "name": "policies",
      "outputs": [
        {
          "internalType": "uint256",
          "name": "id",
          "type": "uint256"
        },
        {
          "internalType": "string",
          "name": "policyType",
          "type": "string"
        },
        {
          "internalType": "uint256",
          "name": "premium",
          "type": "uint256"
        },
        {
          "internalType": "uint256",
          "name": "payoutAmount",
          "type": "uint256"
        },
        {
          "internalType": "uint256",
          "name": "duration",
          "type": "uint256"
        },
        {
          "internalType": "uint256",
          "name": "startTime",
          "type": "uint256"
        },
        {
          "internalType": "bool",
          "name": "active",
          "type": "bool"
        }
      ],
      "stateMutability": "view",
      "type": "function"
    },
    {
      "inputs": [],
      "name": "policyCount",
      "outputs": [
        {
          "internalType": "uint256",
          "name": "",
          "type": "uint256"
        }
      ],
      "stateMutability": "view",
      "type": "function"
    },
    {
      "inputs": [
        {
          "internalType": "uint256",
          "name": "_policyId",
          "type": "uint256"
        }
      ],
      "name": "purchasePolicy",
      "outputs": [],
      "stateMutability": "payable",
      "type": "function"
    },
    {
      "inputs": [
        {
          "internalType": "uint256",
          "name": "_policyId",
          "type": "uint256"
        }
      ],
      "name": "refundDeactivatedPolicy",
      "outputs": [],
      "stateMutability": "nonpayable",
      "type": "function"
    },
    {
      "inputs": [
        {
          "internalType": "address",
          "name": "",
          "type": "address"
        },
        {
          "internalType": "uint256",
          "name": "",
          "type": "uint256"
        }
      ],
      "name": "refundedPolicies",
      "outputs": [
        {
          "internalType": "bool",
          "name": "",
          "type": "bool"
        }
      ],
      "stateMutability": "view",
      "type": "function"
    },
    {
      "inputs": [
        {
          "internalType": "uint256",
          "name": "_policyId",
          "type": "uint256"
        }
      ],
      "name": "submitClaim",
      "outputs": [],
      "stateMutability": "nonpayable",
      "type": "function"
    },
    {
      "inputs": [
        {
          "internalType": "address",
          "name": "",
          "type": "address"
        },
        {
          "internalType": "uint256",
          "name": "",
          "type": "uint256"
        }
      ],
      "name": "userPolicies",
      "outputs": [
        {
          "internalType": "uint256",
          "name": "",
          "type": "uint256"
        }
      ],
      "stateMutability": "view",
      "type": "function"
    },
    {
      "inputs": [
        {
          "internalType": "uint256",
          "name": "_claimId",
          "type": "uint256"
        },
        {
          "internalType": "bool",
          "name": "_approved",
          "type": "bool"
        }
      ],
      "name": "verifyClaim",
      "outputs": [],
      "stateMutability": "nonpayable",
      "type": "function"
    }
  ],
  "bytecode": "0x6080604052348015600f57600080fd5b50336000806101000a81548173ffffffffffffffffffffffffffffffffffffffff021916908373ffffffffffffffffffffffffffffffffffffffff160217905550612d3f8061005f6000396000f3fe6080604052600436106100f35760003560e01c8063b29310961161008a578063d3e8948311610059578063d3e8948314610349578063d88e827d1461038c578063de54d429146103c9578063eb4a4645146103f4576100f3565b8063b293109614610284578063b4649806146102c1578063c1260c9a146102ea578063cc03801014610306576100f3565b80638da4d3c9116100c65780638da4d3c9146101c45780638da5cb5b146101ef5780639f06a7111461021a578063a888c2cd14610243576100f3565b806319ac4614146100f85780633d36adc5146101355780634ab72aae146101725780636aa14a961461019b575b600080fd5b34801561010457600080fd5b5061011f600480360381019061011a9190611bff565b61041d565b60405161012c9190611cf4565b60405180910390f35b34801561014157600080fd5b5061015c60048036038101906101579190611d42565b6104b4565b6040516101699190611d91565b60405180910390f35b34801561017e57600080fd5b5061019960048036038101906101949190611ef2565b6104e5565b005b3480156101a757600080fd5b506101c260048036038101906101bd9190611f75565b610688565b005b3480156101d057600080fd5b506101d9610bd5565b6040516101e69190611d91565b60405180910390f35b3480156101fb57600080fd5b50610204610bdb565b6040516102119190611fb1565b60405180910390f35b34801561022657600080fd5b50610241600480360381019061023c9190611f75565b610bff565b005b34801561024f57600080fd5b5061026a60048036038101906102659190611f75565b610f09565b60405161027b959493929190612066565b60405180910390f35b34801561029057600080fd5b506102ab60048036038101906102a69190611d42565b611001565b6040516102b891906120c0565b60405180910390f35b3480156102cd57600080fd5b506102e860048036038101906102e39190612107565b611030565b005b61030460048036038101906102ff9190611f75565b611225565b005b34801561031257600080fd5b5061032d60048036038101906103289190611f75565b6114a9565b6040516103409796959493929190612147565b60405180910390f35b34801561035557600080fd5b50610370600480360381019061036b9190611f75565b6115f2565b6040516103839796959493929190612147565b60405180910390f35b34801561039857600080fd5b506103b360048036038101906103ae9190611d42565b6116c9565b6040516103c091906120c0565b60405180910390f35b3480156103d557600080fd5b506103de6116f8565b6040516103eb9190611d91565b60405180910390f35b34801561040057600080fd5b5061041b60048036038101906104169190611f75565b6116fe565b005b6060600460008373ffffffffffffffffffffffffffffffffffffffff1673ffffffffffffffffffffffffffffffffffffffff1681526020019081526020016000208054806020026020016040519081016040528092919081815260200182805480156104a857602002820191906000526020600020905b815481526020019060010190808311610494575b50505050509050919050565b600460205281600052604060002081815481106104d057600080fd5b90600052602060002001600091509150505481565b60008054906101000a900473ffffffffffffffffffffffffffffffffffffffff1673ffffffffffffffffffffffffffffffffffffffff163373ffffffffffffffffffffffffffffffffffffffff1614610573576040517f08c379a000000000000000000000000000000000000000000000000000000000815260040161056a9061222f565b60405180910390fd5b600160008154809291906105869061227e565b91905055506040518060e001604052806001548152602001858152602001848152602001838152602001828152602001428152602001600115158152506003600060015481526020019081526020016000206000820151816000015560208201518160010190816105f791906124d2565b5060408201518160020155606082015181600301556080820151816004015560a0820151816005015560c08201518160060160006101000a81548160ff0219169083151502179055509050507fe09f2648d20de4fe12f6cee742e78adc038dabec17e470b29235213d6fa7169c60015485858560405161067a94939291906125a4565b60405180910390a150505050565b806000600190505b600254811161079c578160056000838152602001908152602001600020600001541480156106df57506005600082815260200190815260200160002060010160159054906101000a900460ff16155b801561074957506040516020016106f590612647565b604051602081830303815290604052805190602001206005600083815260200190815260200160002060020160405160200161073191906126df565b60405160208183030381529060405280519060200120145b15610789576040517f08c379a000000000000000000000000000000000000000000000000000000000815260040161078090612768565b60405180910390fd5b80806107949061227e565b915050610690565b506107a733836117f5565b6107e6576040517f08c379a00000000000000000000000000000000000000000000000000000000081526004016107dd906127d4565b60405180910390fd5b600660003373ffffffffffffffffffffffffffffffffffffffff1673ffffffffffffffffffffffffffffffffffffffff168152602001908152602001600020600083815260200190815260200160002060009054906101000a900460ff1615610884576040517f08c379a000000000000000000000000000000000000000000000000000000000815260040161087b90612866565b60405180910390fd5b6000600360008481526020019081526020016000206040518060e0016040529081600082015481526020016001820180546108be906122f5565b80601f01602080910402602001604051908101604052809291908181526020018280546108ea906122f5565b80156109375780601f1061090c57610100808354040283529160200191610937565b820191906000526020600020905b81548152906001019060200180831161091a57829003601f168201915b50505050508152602001600282015481526020016003820154815260200160048201548152602001600582015481526020016006820160009054906101000a900460ff161515151581525050905080608001518160a001516109999190612886565b4211156109db576040517f08c379a00000000000000000000000000000000000000000000000000000000081526004016109d290612906565b60405180910390fd5b600260008154809291906109ee9061227e565b91905055506040518060a001604052808481526020013373ffffffffffffffffffffffffffffffffffffffff1681526020016000151581526020016000151581526020016040518060400160405280600781526020017f50656e64696e67000000000000000000000000000000000000000000000000008152508152506005600060025481526020019081526020016000206000820151816000015560208201518160010160006101000a81548173ffffffffffffffffffffffffffffffffffffffff021916908373ffffffffffffffffffffffffffffffffffffffff16021790555060408201518160010160146101000a81548160ff02191690831515021790555060608201518160010160156101000a81548160ff0219169083151502179055506080820151816002019081610b2691906124d2565b509050506001600660003373ffffffffffffffffffffffffffffffffffffffff1673ffffffffffffffffffffffffffffffffffffffff168152602001908152602001600020600085815260200190815260200160002060006101000a81548160ff0219169083151502179055507f9fe11e531030a058803617055e27f9f4768236e4322e13b9c4c09f4338e23a686002548433604051610bc893929190612926565b60405180910390a1505050565b60025481565b60008054906101000a900473ffffffffffffffffffffffffffffffffffffffff1681565b600015156003600083815260200190815260200160002060060160009054906101000a900460ff16151514610c69576040517f08c379a0000000000000000000000000000000000000000000000000000000008152600401610c60906129a9565b60405180910390fd5b610c7333826117f5565b610cb2576040517f08c379a0000000000000000000000000000000000000000000000000000000008152600401610ca9906127d4565b60405180910390fd5b600760003373ffffffffffffffffffffffffffffffffffffffff1673ffffffffffffffffffffffffffffffffffffffff168152602001908152602001600020600082815260200190815260200160002060009054906101000a900460ff1615610d50576040517f08c379a0000000000000000000000000000000000000000000000000000000008152600401610d4790612a15565b60405180910390fd5b6000600360008381526020019081526020016000206040518060e001604052908160008201548152602001600182018054610d8a906122f5565b80601f0160208091040260200160405190810160405280929190818152602001828054610db6906122f5565b8015610e035780601f10610dd857610100808354040283529160200191610e03565b820191906000526020600020905b815481529060010190602001808311610de657829003601f168201915b50505050508152602001600282015481526020016003820154815260200160048201548152602001600582015481526020016006820160009054906101000a900460ff16151515158152505090506001600760003373ffffffffffffffffffffffffffffffffffffffff1673ffffffffffffffffffffffffffffffffffffffff168152602001908152602001600020600084815260200190815260200160002060006101000a81548160ff0219169083151502179055503373ffffffffffffffffffffffffffffffffffffffff166108fc82604001519081150290604051600060405180830381858888f19350505050158015610f04573d6000803e3d6000fd5b505050565b60056020528060005260406000206000915090508060000154908060010160009054906101000a900473ffffffffffffffffffffffffffffffffffffffff16908060010160149054906101000a900460ff16908060010160159054906101000a900460ff1690806002018054610f7e906122f5565b80601f0160208091040260200160405190810160405280929190818152602001828054610faa906122f5565b8015610ff75780601f10610fcc57610100808354040283529160200191610ff7565b820191906000526020600020905b815481529060010190602001808311610fda57829003601f168201915b5050505050905085565b60066020528160005260406000206020528060005260406000206000915091509054906101000a900460ff1681565b60008054906101000a900473ffffffffffffffffffffffffffffffffffffffff1673ffffffffffffffffffffffffffffffffffffffff163373ffffffffffffffffffffffffffffffffffffffff16146110be576040517f08c379a00000000000000000000000000000000000000000000000000000000081526004016110b59061222f565b60405180910390fd5b60006005600084815260200190815260200160002090508060010160159054906101000a900460ff1615611127576040517f08c379a000000000000000000000000000000000000000000000000000000000815260040161111e90612a81565b60405180910390fd5b811561119f5760018160010160146101000a81548160ff0219169083151502179055506040518060400160405280600881526020017f417070726f76656400000000000000000000000000000000000000000000000081525081600201908161119091906124d2565b5061119a836118da565b6111e7565b6040518060400160405280600881526020017f52656a65637465640000000000000000000000000000000000000000000000008152508160020190816111e591906124d2565b505b7f9e8fe802f6bd854d92f147c664b81e4b4f9e780d622c36478a2b2ec78f748a408383604051611218929190612aa1565b60405180910390a1505050565b6000600360008381526020019081526020016000206040518060e00160405290816000820154815260200160018201805461125f906122f5565b80601f016020809104026020016040519081016040528092919081815260200182805461128b906122f5565b80156112d85780601f106112ad576101008083540402835291602001916112d8565b820191906000526020600020905b8154815290600101906020018083116112bb57829003601f168201915b50505050508152602001600282015481526020016003820154815260200160048201548152602001600582015481526020016006820160009054906101000a900460ff16151515158152505090508060c0015161136a576040517f08c379a000000000000000000000000000000000000000000000000000000000815260040161136190612b16565b60405180910390fd5b80608001518160a0015161137e9190612886565b4211156113c0576040517f08c379a00000000000000000000000000000000000000000000000000000000081526004016113b790612906565b60405180910390fd5b80604001513414611406576040517f08c379a00000000000000000000000000000000000000000000000000000000081526004016113fd90612b82565b60405180910390fd5b600460003373ffffffffffffffffffffffffffffffffffffffff1673ffffffffffffffffffffffffffffffffffffffff1681526020019081526020016000208290806001815401808255809150506001900390600052602060002001600090919091909150557f1ec6ca237cf412015f109db027dc71b2292a20387279781fd699c4ec328a23d7338360405161149d929190612ba2565b60405180910390a15050565b60006060600080600080600080600360008a81526020019081526020016000206040518060e0016040529081600082015481526020016001820180546114ee906122f5565b80601f016020809104026020016040519081016040528092919081815260200182805461151a906122f5565b80156115675780601f1061153c57610100808354040283529160200191611567565b820191906000526020600020905b81548152906001019060200180831161154a57829003601f168201915b50505050508152602001600282015481526020016003820154815260200160048201548152602001600582015481526020016006820160009054906101000a900460ff1615151515815250509050806000015181602001518260400151836060015184608001518560a001518660c00151975097509750975097509750975050919395979092949650565b600360205280600052604060002060009150905080600001549080600101805461161b906122f5565b80601f0160208091040260200160405190810160405280929190818152602001828054611647906122f5565b80156116945780601f1061166957610100808354040283529160200191611694565b820191906000526020600020905b81548152906001019060200180831161167757829003601f168201915b5050505050908060020154908060030154908060040154908060050154908060060160009054906101000a900460ff16905087565b60076020528160005260406000206020528060005260406000206000915091509054906101000a900460ff1681565b60015481565b60008054906101000a900473ffffffffffffffffffffffffffffffffffffffff1673ffffffffffffffffffffffffffffffffffffffff163373ffffffffffffffffffffffffffffffffffffffff161461178c576040517f08c379a00000000000000000000000000000000000000000000000000000000081526004016117839061222f565b60405180910390fd5b60006003600083815260200190815260200160002060060160006101000a81548160ff0219169083151502179055507fa040c05c2aea9ad7da426cefbf383fc472d4759806d4aa7d1257f00f0faadd01816040516117ea9190611d91565b60405180910390a150565b600080600460008573ffffffffffffffffffffffffffffffffffffffff1673ffffffffffffffffffffffffffffffffffffffff16815260200190815260200160002080548060200260200160405190810160405280929190818152602001828054801561188157602002820191906000526020600020905b81548152602001906001019080831161186d575b5050505050905060005b81518110156118cd57838282815181106118a8576118a7612bcb565b5b6020026020010151036118c0576001925050506118d4565b808060010191505061188b565b5060009150505b92915050565b6000600560008381526020019081526020016000209050600060036000836000015481526020019081526020016000206040518060e00160405290816000820154815260200160018201805461192f906122f5565b80601f016020809104026020016040519081016040528092919081815260200182805461195b906122f5565b80156119a85780601f1061197d576101008083540402835291602001916119a8565b820191906000526020600020905b81548152906001019060200180831161198b57829003601f168201915b50505050508152602001600282015481526020016003820154815260200160048201548152602001600582015481526020016006820160009054906101000a900460ff16151515158152505090508160010160149054906101000a900460ff16611a47576040517f08c379a0000000000000000000000000000000000000000000000000000000008152600401611a3e90612c46565b60405180910390fd5b8160010160159054906101000a900460ff1615611a99576040517f08c379a0000000000000000000000000000000000000000000000000000000008152600401611a9090612cb2565b60405180910390fd5b60018260010160156101000a81548160ff0219169083151502179055508160010160009054906101000a900473ffffffffffffffffffffffffffffffffffffffff1673ffffffffffffffffffffffffffffffffffffffff166108fc82606001519081150290604051600060405180830381858888f19350505050158015611b24573d6000803e3d6000fd5b507f4c028a29bef0a15b89081608496decbbc962362ee3795fb80dd5e5f537fbe446838360010160009054906101000a900473ffffffffffffffffffffffffffffffffffffffff168360600151604051611b8093929190612cd2565b60405180910390a1505050565b6000604051905090565b600080fd5b600080fd5b600073ffffffffffffffffffffffffffffffffffffffff82169050919050565b6000611bcc82611ba1565b9050919050565b611bdc81611bc1565b8114611be757600080fd5b50565b600081359050611bf981611bd3565b92915050565b600060208284031215611c1557611c14611b97565b5b6000611c2384828501611bea565b91505092915050565b600081519050919050565b600082825260208201905092915050565b6000819050602082019050919050565b6000819050919050565b611c6b81611c58565b82525050565b6000611c7d8383611c62565b60208301905092915050565b6000602082019050919050565b6000611ca182611c2c565b611cab8185611c37565b9350611cb683611c48565b8060005b83811015611ce7578151611cce8882611c71565b9750611cd983611c89565b925050600181019050611cba565b5085935050505092915050565b60006020820190508181036000830152611d0e8184611c96565b905092915050565b611d1f81611c58565b8114611d2a57600080fd5b50565b600081359050611d3c81611d16565b92915050565b60008060408385031215611d5957611d58611b97565b5b6000611d6785828601611bea565b9250506020611d7885828601611d2d565b9150509250929050565b611d8b81611c58565b82525050565b6000602082019050611da66000830184611d82565b92915050565b600080fd5b600080fd5b6000601f19601f8301169050919050565b7f4e487b7100000000000000000000000000000000000000000000000000000000600052604160045260246000fd5b611dff82611db6565b810181811067ffffffffffffffff82111715611e1e57611e1d611dc7565b5b80604052505050565b6000611e31611b8d565b9050611e3d8282611df6565b919050565b600067ffffffffffffffff821115611e5d57611e5c611dc7565b5b611e6682611db6565b9050602081019050919050565b82818337600083830152505050565b6000611e95611e9084611e42565b611e27565b905082815260208101848484011115611eb157611eb0611db1565b5b611ebc848285611e73565b509392505050565b600082601f830112611ed957611ed8611dac565b5b8135611ee9848260208601611e82565b91505092915050565b60008060008060808587031215611f0c57611f0b611b97565b5b600085013567ffffffffffffffff811115611f2a57611f29611b9c565b5b611f3687828801611ec4565b9450506020611f4787828801611d2d565b9350506040611f5887828801611d2d565b9250506060611f6987828801611d2d565b91505092959194509250565b600060208284031215611f8b57611f8a611b97565b5b6000611f9984828501611d2d565b91505092915050565b611fab81611bc1565b82525050565b6000602082019050611fc66000830184611fa2565b92915050565b60008115159050919050565b611fe181611fcc565b82525050565b600081519050919050565b600082825260208201905092915050565b60005b83811015612021578082015181840152602081019050612006565b60008484015250505050565b600061203882611fe7565b6120428185611ff2565b9350612052818560208601612003565b61205b81611db6565b840191505092915050565b600060a08201905061207b6000830188611d82565b6120886020830187611fa2565b6120956040830186611fd8565b6120a26060830185611fd8565b81810360808301526120b4818461202d565b90509695505050505050565b60006020820190506120d56000830184611fd8565b92915050565b6120e481611fcc565b81146120ef57600080fd5b50565b600081359050612101816120db565b92915050565b6000806040838503121561211e5761211d611b97565b5b600061212c85828601611d2d565b925050602061213d858286016120f2565b9150509250929050565b600060e08201905061215c600083018a611d82565b818103602083015261216e818961202d565b905061217d6040830188611d82565b61218a6060830187611d82565b6121976080830186611d82565b6121a460a0830185611d82565b6121b160c0830184611fd8565b98975050505050505050565b7f4f6e6c79206f776e65722063616e206578656375746520746869732066756e6360008201527f74696f6e00000000000000000000000000000000000000000000000000000000602082015250565b6000612219602483611ff2565b9150612224826121bd565b604082019050919050565b600060208201905081810360008301526122488161220c565b9050919050565b7f4e487b7100000000000000000000000000000000000000000000000000000000600052601160045260246000fd5b600061228982611c58565b91507fffffffffffffffffffffffffffffffffffffffffffffffffffffffffffffffff82036122bb576122ba61224f565b5b600182019050919050565b7f4e487b7100000000000000000000000000000000000000000000000000000000600052602260045260246000fd5b6000600282049050600182168061230d57607f821691505b6020821081036123205761231f6122c6565b5b50919050565b60008190508160005260206000209050919050565b60006020601f8301049050919050565b600082821b905092915050565b6000600883026123887fffffffffffffffffffffffffffffffffffffffffffffffffffffffffffffffff8261234b565b612392868361234b565b95508019841693508086168417925050509392505050565b6000819050919050565b60006123cf6123ca6123c584611c58565b6123aa565b611c58565b9050919050565b6000819050919050565b6123e9836123b4565b6123fd6123f5826123d6565b848454612358565b825550505050565b600090565b612412612405565b61241d8184846123e0565b505050565b5b818110156124415761243660008261240a565b600181019050612423565b5050565b601f8211156124865761245781612326565b6124608461233b565b8101602085101561246f578190505b61248361247b8561233b565b830182612422565b50505b505050565b600082821c905092915050565b60006124a96000198460080261248b565b1980831691505092915050565b60006124c28383612498565b9150826002028217905092915050565b6124db82611fe7565b67ffffffffffffffff8111156124f4576124f3611dc7565b5b6124fe82546122f5565b612509828285612445565b600060209050601f83116001811461253c576000841561252a578287015190505b61253485826124b6565b86555061259c565b601f19841661254a86612326565b60005b828110156125725784890151825560018201915060208501945060208101905061254d565b8683101561258f578489015161258b601f891682612498565b8355505b6001600288020188555050505b505050505050565b60006080820190506125b96000830187611d82565b81810360208301526125cb818661202d565b90506125da6040830185611d82565b6125e76060830184611d82565b95945050505050565b600081905092915050565b7f50656e64696e6700000000000000000000000000000000000000000000000000600082015250565b60006126316007836125f0565b915061263c826125fb565b600782019050919050565b600061265282612624565b9150819050919050565b60008154612669816122f5565b61267381866125f0565b9450600182166000811461268e57600181146126a3576126d6565b60ff19831686528115158202860193506126d6565b6126ac85612326565b60005b838110156126ce578154818901526001820191506020810190506126af565b838801955050505b50505092915050565b60006126eb828461265c565b915081905092915050565b7f546865726520697320616c726561647920616e2061637469766520636c61696d60008201527f20666f72207468697320706f6c69637900000000000000000000000000000000602082015250565b6000612752603083611ff2565b915061275d826126f6565b604082019050919050565b6000602082019050818103600083015261278181612745565b9050919050565b7f4e6f74206120706f6c69637920686f6c64657200000000000000000000000000600082015250565b60006127be601383611ff2565b91506127c982612788565b602082019050919050565b600060208201905081810360008301526127ed816127b1565b9050919050565b7f436c61696d20616c7265616479207375626d697474656420666f72207468697360008201527f20706f6c69637900000000000000000000000000000000000000000000000000602082015250565b6000612850602783611ff2565b915061285b826127f4565b604082019050919050565b6000602082019050818103600083015261287f81612843565b9050919050565b600061289182611c58565b915061289c83611c58565b92508282019050808211156128b4576128b361224f565b5b92915050565b7f506f6c6963792068617320657870697265640000000000000000000000000000600082015250565b60006128f0601283611ff2565b91506128fb826128ba565b602082019050919050565b6000602082019050818103600083015261291f816128e3565b9050919050565b600060608201905061293b6000830186611d82565b6129486020830185611d82565b6129556040830184611fa2565b949350505050565b7f506f6c696379206973207374696c6c2061637469766500000000000000000000600082015250565b6000612993601683611ff2565b915061299e8261295d565b602082019050919050565b600060208201905081810360008301526129c281612986565b9050919050565b7f416c726561647920726566756e64656400000000000000000000000000000000600082015250565b60006129ff601083611ff2565b9150612a0a826129c9565b602082019050919050565b60006020820190508181036000830152612a2e816129f2565b9050919050565b7f436c61696d20616c72656164792070616964206f757400000000000000000000600082015250565b6000612a6b601683611ff2565b9150612a7682612a35565b602082019050919050565b60006020820190508181036000830152612a9a81612a5e565b9050919050565b6000604082019050612ab66000830185611d82565b612ac36020830184611fd8565b9392505050565b7f506f6c696379206973206e6f7420616374697665000000000000000000000000600082015250565b6000612b00601483611ff2565b9150612b0b82612aca565b602082019050919050565b60006020820190508181036000830152612b2f81612af3565b9050919050565b7f496e636f7272656374207072656d69756d20616d6f756e740000000000000000600082015250565b6000612b6c601883611ff2565b9150612b7782612b36565b602082019050919050565b60006020820190508181036000830152612b9b81612b5f565b9050919050565b6000604082019050612bb76000830185611fa2565b612bc46020830184611d82565b9392505050565b7f4e487b7100000000000000000000000000000000000000000000000000000000600052603260045260246000fd5b7f436c61696d206e6f742076657269666965640000000000000000000000000000600082015250565b6000612c30601283611ff2565b9150612c3b82612bfa565b602082019050919050565b60006020820190508181036000830152612c5f81612c23565b9050919050565b7f416c72656164792070616964206f757400000000000000000000000000000000600082015250565b6000612c9c601083611ff2565b9150612ca782612c66565b602082019050919050565b60006020820190508181036000830152612ccb81612c8f565b9050919050565b6000606082019050612ce76000830186611d82565b612cf46020830185611fa2565b612d016040830184611d82565b94935050505056fea2646970667358221220bebb55691447b079189a865876a6f73885a2eeff85d55c321592d8d2e15e0ec064736f6c634300081b0033",
  "linkReferences": {},
  "deployedLinkReferences": {}
}