{
  "_format": "hh-sol-artifact-1",
  "contractName": "InsurancePlatform",
  "sourceName": "contracts/Insurance.sol",
  "abi": [
    {
      "inputs": [],
      "stateMutability": "nonpayable",
      "type": "constructor"
    },
    {
      "anonymous": false,
      "inputs": [
        {
          "indexed": false,
          "internalType": "uint256",
          "name": "claimId",
          "type": "uint256"
        },
        {
          "indexed": false,
          "internalType": "enum InsurancePlatform.ClaimStatus",
          "name": "status",
          "type": "uint8"
        }
      ],
      "name": "ClaimProcessed",
      "type": "event"
    },
    {
      "anonymous": false,
      "inputs": [
        {
          "indexed": false,
          "internalType": "uint256",
          "name": "claimId",
          "type": "uint256"
        },
        {
          "indexed": false,
          "internalType": "uint256",
          "name": "policyId",
          "type": "uint256"
        },
        {
          "indexed": false,
          "internalType": "address",
          "name": "claimant",
          "type": "address"
        }
      ],
      "name": "ClaimSubmitted",
      "type": "event"
    },
    {
      "anonymous": false,
      "inputs": [
        {
          "indexed": false,
          "internalType": "uint256",
          "name": "claimId",
          "type": "uint256"
        },
        {
          "indexed": false,
          "internalType": "address",
          "name": "claimant",
          "type": "address"
        },
        {
          "indexed": false,
          "internalType": "uint256",
          "name": "amount",
          "type": "uint256"
        }
      ],
      "name": "PayoutIssued",
      "type": "event"
    },
    {
      "anonymous": false,
      "inputs": [
        {
          "indexed": false,
          "internalType": "uint256",
          "name": "policyId",
          "type": "uint256"
        },
        {
          "indexed": false,
          "internalType": "string",
          "name": "policyType",
          "type": "string"
        },
        {
          "indexed": false,
          "internalType": "uint256",
          "name": "premium",
          "type": "uint256"
        },
        {
          "indexed": false,
          "internalType": "uint256",
          "name": "coverageAmount",
          "type": "uint256"
        }
      ],
      "name": "PolicyCreated",
      "type": "event"
    },
    {
      "anonymous": false,
      "inputs": [
        {
          "indexed": false,
          "internalType": "uint256",
          "name": "policyId",
          "type": "uint256"
        },
        {
          "indexed": false,
          "internalType": "address",
          "name": "policyHolder",
          "type": "address"
        }
      ],
      "name": "PolicyPurchased",
      "type": "event"
    },
    {
      "anonymous": false,
      "inputs": [
        {
          "indexed": false,
          "internalType": "uint256",
          "name": "policyId",
          "type": "uint256"
        },
        {
          "indexed": false,
          "internalType": "bool",
          "name": "activeStatus",
          "type": "bool"
        }
      ],
      "name": "PolicyStatusChanged",
      "type": "event"
    },
    {
      "anonymous": false,
      "inputs": [
        {
          "indexed": false,
          "internalType": "uint256",
          "name": "policyId",
          "type": "uint256"
        },
        {
          "indexed": false,
          "internalType": "string",
          "name": "policyType",
          "type": "string"
        },
        {
          "indexed": false,
          "internalType": "uint256",
          "name": "premium",
          "type": "uint256"
        },
        {
          "indexed": false,
          "internalType": "uint256",
          "name": "coverageAmount",
          "type": "uint256"
        }
      ],
      "name": "PolicyUpdated",
      "type": "event"
    },
    {
      "anonymous": false,
      "inputs": [
        {
          "indexed": false,
          "internalType": "uint256",
          "name": "policyId",
          "type": "uint256"
        },
        {
          "indexed": false,
          "internalType": "address",
          "name": "policyHolder",
          "type": "address"
        }
      ],
      "name": "RefundIssued",
      "type": "event"
    },
    {
      "inputs": [
        {
          "internalType": "uint256",
          "name": "_claimId",
          "type": "uint256"
        },
        {
          "internalType": "bool",
          "name": "_approve",
          "type": "bool"
        }
      ],
      "name": "approveOrRejectClaim",
      "outputs": [],
      "stateMutability": "nonpayable",
      "type": "function"
    },
    {
      "inputs": [],
      "name": "auditTrails",
      "outputs": [
        {
          "internalType": "uint256",
          "name": "totalPolicies",
          "type": "uint256"
        },
        {
          "internalType": "uint256",
          "name": "totalClaims",
          "type": "uint256"
        }
      ],
      "stateMutability": "view",
      "type": "function"
    },
    {
      "inputs": [
        {
          "internalType": "uint256",
          "name": "_policyId",
          "type": "uint256"
        },
        {
          "internalType": "bool",
          "name": "_active",
          "type": "bool"
        }
      ],
      "name": "changePolicyStatus",
      "outputs": [],
      "stateMutability": "nonpayable",
      "type": "function"
    },
    {
      "inputs": [],
      "name": "claimCount",
      "outputs": [
        {
          "internalType": "uint256",
          "name": "",
          "type": "uint256"
        }
      ],
      "stateMutability": "view",
      "type": "function"
    },
    {
      "inputs": [
        {
          "internalType": "uint256",
          "name": "",
          "type": "uint256"
        }
      ],
      "name": "claims",
      "outputs": [
        {
          "internalType": "uint256",
          "name": "id",
          "type": "uint256"
        },
        {
          "internalType": "uint256",
          "name": "policyId",
          "type": "uint256"
        },
        {
          "internalType": "address",
          "name": "claimant",
          "type": "address"
        },
        {
          "internalType": "enum InsurancePlatform.ClaimStatus",
          "name": "status",
          "type": "uint8"
        },
        {
          "internalType": "uint256",
          "name": "claimAmount",
          "type": "uint256"
        },
        {
          "internalType": "bool",
          "name": "paidOut",
          "type": "bool"
        }
      ],
      "stateMutability": "view",
      "type": "function"
    },
    {
      "inputs": [
        {
          "internalType": "string",
          "name": "_policyType",
          "type": "string"
        },
        {
          "internalType": "uint256",
          "name": "_premium",
          "type": "uint256"
        },
        {
          "internalType": "uint256",
          "name": "_coverageAmount",
          "type": "uint256"
        },
        {
          "internalType": "uint256",
          "name": "_duration",
          "type": "uint256"
        },
        {
          "internalType": "bool",
          "name": "_renewable",
          "type": "bool"
        }
      ],
      "name": "createPolicy",
      "outputs": [],
      "stateMutability": "nonpayable",
      "type": "function"
    },
    {
      "inputs": [
        {
          "internalType": "uint256",
          "name": "_claimId",
          "type": "uint256"
        }
      ],
      "name": "getClaimStatus",
      "outputs": [
        {
          "internalType": "enum InsurancePlatform.ClaimStatus",
          "name": "",
          "type": "uint8"
        }
      ],
      "stateMutability": "view",
      "type": "function"
    },
    {
      "inputs": [
        {
          "internalType": "address",
          "name": "_customer",
          "type": "address"
        }
      ],
      "name": "getCustomerPolicies",
      "outputs": [
        {
          "internalType": "uint256[]",
          "name": "",
          "type": "uint256[]"
        }
      ],
      "stateMutability": "view",
      "type": "function"
    },
    {
      "inputs": [
        {
          "internalType": "uint256",
          "name": "_policyId",
          "type": "uint256"
        }
      ],
      "name": "makePremiumPayment",
      "outputs": [],
      "stateMutability": "payable",
      "type": "function"
    },
    {
      "inputs": [
        {
          "internalType": "uint256",
          "name": "_policyId",
          "type": "uint256"
        },
        {
          "internalType": "string",
          "name": "_policyType",
          "type": "string"
        },
        {
          "internalType": "uint256",
          "name": "_premium",
          "type": "uint256"
        },
        {
          "internalType": "uint256",
          "name": "_coverageAmount",
          "type": "uint256"
        }
      ],
      "name": "modifyPolicy",
      "outputs": [],
      "stateMutability": "nonpayable",
      "type": "function"
    },
    {
      "inputs": [],
      "name": "owner",
      "outputs": [
        {
          "internalType": "address",
          "name": "",
          "type": "address"
        }
      ],
      "stateMutability": "view",
      "type": "function"
    },
    {
      "inputs": [
        {
          "internalType": "uint256",
          "name": "",
          "type": "uint256"
        }
      ],
      "name": "policies",
      "outputs": [
        {
          "internalType": "uint256",
          "name": "id",
          "type": "uint256"
        },
        {
          "internalType": "string",
          "name": "policyType",
          "type": "string"
        },
        {
          "internalType": "uint256",
          "name": "premium",
          "type": "uint256"
        },
        {
          "internalType": "uint256",
          "name": "coverageAmount",
          "type": "uint256"
        },
        {
          "internalType": "uint256",
          "name": "duration",
          "type": "uint256"
        },
        {
          "internalType": "uint256",
          "name": "startTime",
          "type": "uint256"
        },
        {
          "internalType": "address",
          "name": "policyHolder",
          "type": "address"
        },
        {
          "internalType": "bool",
          "name": "active",
          "type": "bool"
        },
        {
          "internalType": "bool",
          "name": "renewable",
          "type": "bool"
        }
      ],
      "stateMutability": "view",
      "type": "function"
    },
    {
      "inputs": [],
      "name": "policyCount",
      "outputs": [
        {
          "internalType": "uint256",
          "name": "",
          "type": "uint256"
        }
      ],
      "stateMutability": "view",
      "type": "function"
    },
    {
      "inputs": [
        {
          "internalType": "uint256",
          "name": "_policyId",
          "type": "uint256"
        }
      ],
      "name": "purchasePolicy",
      "outputs": [],
      "stateMutability": "payable",
      "type": "function"
    },
    {
      "inputs": [
        {
          "internalType": "uint256",
          "name": "_policyId",
          "type": "uint256"
        }
      ],
      "name": "refundPolicy",
      "outputs": [],
      "stateMutability": "nonpayable",
      "type": "function"
    },
    {
      "inputs": [
        {
          "internalType": "uint256",
          "name": "_policyId",
          "type": "uint256"
        }
      ],
      "name": "renewPolicy",
      "outputs": [],
      "stateMutability": "payable",
      "type": "function"
    },
    {
      "inputs": [
        {
          "internalType": "uint256",
          "name": "_policyId",
          "type": "uint256"
        }
      ],
      "name": "renewalReminder",
      "outputs": [
        {
          "internalType": "bool",
          "name": "",
          "type": "bool"
        }
      ],
      "stateMutability": "view",
      "type": "function"
    },
    {
      "inputs": [
        {
          "internalType": "uint256",
          "name": "_policyId",
          "type": "uint256"
        }
      ],
      "name": "requestRefund",
      "outputs": [],
      "stateMutability": "nonpayable",
      "type": "function"
    },
    {
      "inputs": [
        {
          "internalType": "uint256",
          "name": "_policyId",
          "type": "uint256"
        },
        {
          "internalType": "uint256",
          "name": "_claimAmount",
          "type": "uint256"
        }
      ],
      "name": "submitClaim",
      "outputs": [],
      "stateMutability": "nonpayable",
      "type": "function"
    },
    {
      "inputs": [
        {
          "internalType": "address",
          "name": "",
          "type": "address"
        },
        {
          "internalType": "uint256",
          "name": "",
          "type": "uint256"
        }
      ],
      "name": "userPolicies",
      "outputs": [
        {
          "internalType": "uint256",
          "name": "",
          "type": "uint256"
        }
      ],
      "stateMutability": "view",
      "type": "function"
    },
    {
      "inputs": [],
      "name": "viewAvailablePolicies",
      "outputs": [
        {
          "components": [
            {
              "internalType": "uint256",
              "name": "id",
              "type": "uint256"
            },
            {
              "internalType": "string",
              "name": "policyType",
              "type": "string"
            },
            {
              "internalType": "uint256",
              "name": "premium",
              "type": "uint256"
            },
            {
              "internalType": "uint256",
              "name": "coverageAmount",
              "type": "uint256"
            },
            {
              "internalType": "uint256",
              "name": "duration",
              "type": "uint256"
            },
            {
              "internalType": "uint256",
              "name": "startTime",
              "type": "uint256"
            },
            {
              "internalType": "address",
              "name": "policyHolder",
              "type": "address"
            },
            {
              "internalType": "bool",
              "name": "active",
              "type": "bool"
            },
            {
              "internalType": "bool",
              "name": "renewable",
              "type": "bool"
            }
          ],
          "internalType": "struct InsurancePlatform.Policy[]",
          "name": "",
          "type": "tuple[]"
        }
      ],
      "stateMutability": "view",
      "type": "function"
    },
    {
      "inputs": [
        {
          "internalType": "uint256",
          "name": "_claimId",
          "type": "uint256"
        }
      ],
      "name": "viewClaim",
      "outputs": [
        {
          "components": [
            {
              "internalType": "uint256",
              "name": "id",
              "type": "uint256"
            },
            {
              "internalType": "uint256",
              "name": "policyId",
              "type": "uint256"
            },
            {
              "internalType": "address",
              "name": "claimant",
              "type": "address"
            },
            {
              "internalType": "enum InsurancePlatform.ClaimStatus",
              "name": "status",
              "type": "uint8"
            },
            {
              "internalType": "uint256",
              "name": "claimAmount",
              "type": "uint256"
            },
            {
              "internalType": "bool",
              "name": "paidOut",
              "type": "bool"
            }
          ],
          "internalType": "struct InsurancePlatform.Claim",
          "name": "",
          "type": "tuple"
        }
      ],
      "stateMutability": "view",
      "type": "function"
    }
  ],
  "bytecode": "0x6080604052348015600f57600080fd5b50336000806101000a81548173ffffffffffffffffffffffffffffffffffffffff021916908373ffffffffffffffffffffffffffffffffffffffff1602179055506135048061005f6000396000f3fe6080604052600436106101355760003560e01c806391675063116100ab578063d3e894831161006f578063d3e8948314610420578063de54d42914610465578063f408f48d14610490578063f8e6693d146104cd578063f9ec2bcf146104f6578063fb13b3da1461051257610135565b80639167506314610347578063a4b2409e14610370578063a888c2cd14610399578063c1260c9a146103db578063cc26d227146103f757610135565b80633d36adc5116100fd5780633d36adc51461021e57806349b1b0111461025b57806366406d5e146102775780638c5ccbff146102b45780638da4d3c9146102f15780638da5cb5b1461031c57610135565b80630334cc341461013a57806327d46cf61461016657806336dbd2f91461018f57806338fb9efc146101cc578063393545e4146101f5575b600080fd5b34801561014657600080fd5b5061014f61053d565b60405161015d929190612013565b60405180910390f35b34801561017257600080fd5b5061018d6004803603810190610188919061207c565b6105dc565b005b34801561019b57600080fd5b506101b660048036038101906101b1919061207c565b610795565b6040516101c39190612120565b60405180910390f35b3480156101d857600080fd5b506101f360048036038101906101ee91906122b9565b6107c2565b005b34801561020157600080fd5b5061021c60048036038101906102179190612350565b6109f5565b005b34801561022a57600080fd5b50610245600480360381019061024091906123ee565b610bd0565b604051610252919061242e565b60405180910390f35b6102756004803603810190610270919061207c565b610c01565b005b34801561028357600080fd5b5061029e6004803603810190610299919061207c565b610d7f565b6040516102ab9190612500565b60405180910390f35b3480156102c057600080fd5b506102db60048036038101906102d6919061207c565b610f04565b6040516102e8919061252a565b60405180910390f35b3480156102fd57600080fd5b50610306611001565b604051610313919061242e565b60405180910390f35b34801561032857600080fd5b50610331611007565b60405161033e9190612554565b60405180910390f35b34801561035357600080fd5b5061036e6004803603810190610369919061256f565b61102b565b005b34801561037c57600080fd5b506103976004803603810190610392919061207c565b6112bb565b005b3480156103a557600080fd5b506103c060048036038101906103bb919061207c565b6113d7565b6040516103d2969594939291906125af565b60405180910390f35b6103f560048036038101906103f0919061207c565b61144d565b005b34801561040357600080fd5b5061041e60048036038101906104199190612610565b611608565b005b34801561042c57600080fd5b506104476004803603810190610442919061207c565b611715565b60405161045c99989796959493929190612712565b60405180910390f35b34801561047157600080fd5b5061047a611825565b604051610487919061242e565b60405180910390f35b34801561049c57600080fd5b506104b760048036038101906104b291906127a6565b61182b565b6040516104c49190612882565b60405180910390f35b3480156104d957600080fd5b506104f460048036038101906104ef9190612350565b611950565b005b610510600480360381019061050b919061207c565b611a49565b005b34801561051e57600080fd5b50610527611b76565b6040516105349190612a75565b60405180910390f35b60008060008054906101000a900473ffffffffffffffffffffffffffffffffffffffff1673ffffffffffffffffffffffffffffffffffffffff163373ffffffffffffffffffffffffffffffffffffffff16146105ce576040517f08c379a00000000000000000000000000000000000000000000000000000000081526004016105c590612b09565b60405180910390fd5b600154600254915091509091565b60008054906101000a900473ffffffffffffffffffffffffffffffffffffffff1673ffffffffffffffffffffffffffffffffffffffff163373ffffffffffffffffffffffffffffffffffffffff161461066a576040517f08c379a000000000000000000000000000000000000000000000000000000000815260040161066190612b09565b60405180910390fd5b60006003600083815260200190815260200160002090508060060160149054906101000a900460ff16156106d3576040517f08c379a00000000000000000000000000000000000000000000000000000000081526004016106ca90612b9b565b60405180910390fd5b60008160060160009054906101000a900473ffffffffffffffffffffffffffffffffffffffff169050600082600201549050600083600201819055508173ffffffffffffffffffffffffffffffffffffffff166108fc829081150290604051600060405180830381858888f19350505050158015610755573d6000803e3d6000fd5b507f4f98299055c017596024bf5f17efb243bb559423f63a766e2effca248d0a95218483604051610787929190612bbb565b60405180910390a150505050565b60006004600083815260200190815260200160002060020160149054906101000a900460ff169050919050565b60008054906101000a900473ffffffffffffffffffffffffffffffffffffffff1673ffffffffffffffffffffffffffffffffffffffff163373ffffffffffffffffffffffffffffffffffffffff1614610850576040517f08c379a000000000000000000000000000000000000000000000000000000000815260040161084790612b09565b60405180910390fd5b6001600081548092919061086390612c13565b9190505550604051806101200160405280600154815260200186815260200185815260200184815260200183815260200160008152602001600073ffffffffffffffffffffffffffffffffffffffff1681526020016000151581526020018215158152506003600060015481526020019081526020016000206000820151816000015560208201518160010190816108fb9190612e67565b5060408201518160020155606082015181600301556080820151816004015560a0820151816005015560c08201518160060160006101000a81548173ffffffffffffffffffffffffffffffffffffffff021916908373ffffffffffffffffffffffffffffffffffffffff16021790555060e08201518160060160146101000a81548160ff0219169083151502179055506101008201518160060160156101000a81548160ff0219169083151502179055509050507fe09f2648d20de4fe12f6cee742e78adc038dabec17e470b29235213d6fa7169c6001548686866040516109e69493929190612f39565b60405180910390a15050505050565b60008054906101000a900473ffffffffffffffffffffffffffffffffffffffff1673ffffffffffffffffffffffffffffffffffffffff163373ffffffffffffffffffffffffffffffffffffffff1614610a83576040517f08c379a0000000000000000000000000000000000000000000000000000000008152600401610a7a90612b09565b60405180910390fd5b600060046000848152602001908152602001600020905060006002811115610aae57610aad6120a9565b5b8160020160149054906101000a900460ff166002811115610ad257610ad16120a9565b5b14610b12576040517f08c379a0000000000000000000000000000000000000000000000000000000008152600401610b0990612fd1565b60405180910390fd5b8115610b535760018160020160146101000a81548160ff02191690836002811115610b4057610b3f6120a9565b5b0217905550610b4e83611d96565b610b81565b60028160020160146101000a81548160ff02191690836002811115610b7b57610b7a6120a9565b5b02179055505b7f71b2546244a774fd0b97d37ceaac0b5f5fc83f468abb1877f67fcfca93a20c40838260020160149054906101000a900460ff16604051610bc3929190612ff1565b60405180910390a1505050565b60056020528160005260406000208181548110610bec57600080fd5b90600052602060002001600091509150505481565b803373ffffffffffffffffffffffffffffffffffffffff166003600083815260200190815260200160002060060160009054906101000a900473ffffffffffffffffffffffffffffffffffffffff1673ffffffffffffffffffffffffffffffffffffffff1614610ca6576040517f08c379a0000000000000000000000000000000000000000000000000000000008152600401610c9d90613066565b60405180910390fd5b60006003600084815260200190815260200160002090508060060160159054906101000a900460ff16610d0e576040517f08c379a0000000000000000000000000000000000000000000000000000000008152600401610d05906130d2565b60405180910390fd5b80600201543414610d54576040517f08c379a0000000000000000000000000000000000000000000000000000000008152600401610d4b9061313e565b60405180910390fd5b42816005018190555060018160060160146101000a81548160ff021916908315150217905550505050565b610d87611f34565b60008054906101000a900473ffffffffffffffffffffffffffffffffffffffff1673ffffffffffffffffffffffffffffffffffffffff163373ffffffffffffffffffffffffffffffffffffffff1614610e15576040517f08c379a0000000000000000000000000000000000000000000000000000000008152600401610e0c90612b09565b60405180910390fd5b600460008381526020019081526020016000206040518060c001604052908160008201548152602001600182015481526020016002820160009054906101000a900473ffffffffffffffffffffffffffffffffffffffff1673ffffffffffffffffffffffffffffffffffffffff1673ffffffffffffffffffffffffffffffffffffffff1681526020016002820160149054906101000a900460ff166002811115610ec257610ec16120a9565b5b6002811115610ed457610ed36120a9565b5b8152602001600382015481526020016004820160009054906101000a900460ff1615151515815250509050919050565b6000813373ffffffffffffffffffffffffffffffffffffffff166003600083815260200190815260200160002060060160009054906101000a900473ffffffffffffffffffffffffffffffffffffffff1673ffffffffffffffffffffffffffffffffffffffff1614610fab576040517f08c379a0000000000000000000000000000000000000000000000000000000008152600401610fa290613066565b60405180910390fd5b60006003600085815260200190815260200160002090506201518081600401548260050154610fda919061315e565b610fe49190613192565b421115610ff5576001925050610ffb565b60009250505b50919050565b60025481565b60008054906101000a900473ffffffffffffffffffffffffffffffffffffffff1681565b813373ffffffffffffffffffffffffffffffffffffffff166003600083815260200190815260200160002060060160009054906101000a900473ffffffffffffffffffffffffffffffffffffffff1673ffffffffffffffffffffffffffffffffffffffff16146110d0576040517f08c379a00000000000000000000000000000000000000000000000000000000081526004016110c790613066565b60405180910390fd5b60006003600085815260200190815260200160002090508060060160149054906101000a900460ff16611138576040517f08c379a000000000000000000000000000000000000000000000000000000000815260040161112f90613238565b60405180910390fd5b6002600081548092919061114b90612c13565b91905055506040518060c0016040528060025481526020018581526020013373ffffffffffffffffffffffffffffffffffffffff16815260200160006002811115611199576111986120a9565b5b815260200184815260200160001515815250600460006002548152602001908152602001600020600082015181600001556020820151816001015560408201518160020160006101000a81548173ffffffffffffffffffffffffffffffffffffffff021916908373ffffffffffffffffffffffffffffffffffffffff16021790555060608201518160020160146101000a81548160ff02191690836002811115611246576112456120a9565b5b02179055506080820151816003015560a08201518160040160006101000a81548160ff0219169083151502179055509050507f9fe11e531030a058803617055e27f9f4768236e4322e13b9c4c09f4338e23a6860025485336040516112ad93929190613258565b60405180910390a150505050565b803373ffffffffffffffffffffffffffffffffffffffff166003600083815260200190815260200160002060060160009054906101000a900473ffffffffffffffffffffffffffffffffffffffff1673ffffffffffffffffffffffffffffffffffffffff1614611360576040517f08c379a000000000000000000000000000000000000000000000000000000000815260040161135790613066565b60405180910390fd5b60006003600084815260200190815260200160002090508060060160149054906101000a900460ff16156113c9576040517f08c379a00000000000000000000000000000000000000000000000000000000081526004016113c0906132db565b60405180910390fd5b6113d2836105dc565b505050565b60046020528060005260406000206000915090508060000154908060010154908060020160009054906101000a900473ffffffffffffffffffffffffffffffffffffffff16908060020160149054906101000a900460ff16908060030154908060040160009054906101000a900460ff16905086565b6000600360008381526020019081526020016000209050806002015434146114aa576040517f08c379a00000000000000000000000000000000000000000000000000000000081526004016114a190613347565b60405180910390fd5b8060060160149054906101000a900460ff16156114fc576040517f08c379a00000000000000000000000000000000000000000000000000000000081526004016114f3906133b3565b60405180910390fd5b338160060160006101000a81548173ffffffffffffffffffffffffffffffffffffffff021916908373ffffffffffffffffffffffffffffffffffffffff16021790555042816005018190555060018160060160146101000a81548160ff021916908315150217905550600560003373ffffffffffffffffffffffffffffffffffffffff1673ffffffffffffffffffffffffffffffffffffffff1681526020019081526020016000208290806001815401808255809150506001900390600052602060002001600090919091909150557f60d59b58b916d11d0ac52c397e342e25ae6dc5da412115d469d304bf4dd8640482336040516115fc929190612bbb565b60405180910390a15050565b60008054906101000a900473ffffffffffffffffffffffffffffffffffffffff1673ffffffffffffffffffffffffffffffffffffffff163373ffffffffffffffffffffffffffffffffffffffff1614611696576040517f08c379a000000000000000000000000000000000000000000000000000000000815260040161168d90612b09565b60405180910390fd5b6000600360008681526020019081526020016000209050838160010190816116be9190612e67565b508281600201819055508181600301819055507f2338aa6f460bea91ebbee75a2e87630ccdc12639e829d69f3c2cdcd2f97718fb858585856040516117069493929190612f39565b60405180910390a15050505050565b600360205280600052604060002060009150905080600001549080600101805461173e90612c8a565b80601f016020809104026020016040519081016040528092919081815260200182805461176a90612c8a565b80156117b75780601f1061178c576101008083540402835291602001916117b7565b820191906000526020600020905b81548152906001019060200180831161179a57829003601f168201915b5050505050908060020154908060030154908060040154908060050154908060060160009054906101000a900473ffffffffffffffffffffffffffffffffffffffff16908060060160149054906101000a900460ff16908060060160159054906101000a900460ff16905089565b60015481565b606060008054906101000a900473ffffffffffffffffffffffffffffffffffffffff1673ffffffffffffffffffffffffffffffffffffffff163373ffffffffffffffffffffffffffffffffffffffff16146118bb576040517f08c379a00000000000000000000000000000000000000000000000000000000081526004016118b290612b09565b60405180910390fd5b600560008373ffffffffffffffffffffffffffffffffffffffff1673ffffffffffffffffffffffffffffffffffffffff16815260200190815260200160002080548060200260200160405190810160405280929190818152602001828054801561194457602002820191906000526020600020905b815481526020019060010190808311611930575b50505050509050919050565b60008054906101000a900473ffffffffffffffffffffffffffffffffffffffff1673ffffffffffffffffffffffffffffffffffffffff163373ffffffffffffffffffffffffffffffffffffffff16146119de576040517f08c379a00000000000000000000000000000000000000000000000000000000081526004016119d590612b09565b60405180910390fd5b806003600084815260200190815260200160002060060160146101000a81548160ff0219169083151502179055507fcf60b536196d555e04ffb5cff8f6c45650258cbd8f1344f104201e20cbf004af8282604051611a3d9291906133d3565b60405180910390a15050565b803373ffffffffffffffffffffffffffffffffffffffff166003600083815260200190815260200160002060060160009054906101000a900473ffffffffffffffffffffffffffffffffffffffff1673ffffffffffffffffffffffffffffffffffffffff1614611aee576040517f08c379a0000000000000000000000000000000000000000000000000000000008152600401611ae590613066565b60405180910390fd5b600060036000848152602001908152602001600020905080600201543414611b4b576040517f08c379a0000000000000000000000000000000000000000000000000000000008152600401611b4290613347565b60405180910390fd5b42816005018190555060018160060160146101000a81548160ff021916908315150217905550505050565b6060600060015467ffffffffffffffff811115611b9657611b95612156565b5b604051908082528060200260200182016040528015611bcf57816020015b611bbc611f94565b815260200190600190039081611bb45790505b5090506000600190505b6001548111611d8e57600360008281526020019081526020016000206040518061012001604052908160008201548152602001600182018054611c1b90612c8a565b80601f0160208091040260200160405190810160405280929190818152602001828054611c4790612c8a565b8015611c945780601f10611c6957610100808354040283529160200191611c94565b820191906000526020600020905b815481529060010190602001808311611c7757829003601f168201915b50505050508152602001600282015481526020016003820154815260200160048201548152602001600582015481526020016006820160009054906101000a900473ffffffffffffffffffffffffffffffffffffffff1673ffffffffffffffffffffffffffffffffffffffff1673ffffffffffffffffffffffffffffffffffffffff1681526020016006820160149054906101000a900460ff161515151581526020016006820160159054906101000a900460ff16151515158152505082600183611d5f9190613192565b81518110611d7057611d6f6133fc565b5b60200260200101819052508080611d8690612c13565b915050611bd9565b508091505090565b600060046000838152602001908152602001600020905060006003600083600101548152602001908152602001600020905060016002811115611ddc57611ddb6120a9565b5b8260020160149054906101000a900460ff166002811115611e0057611dff6120a9565b5b14611e40576040517f08c379a0000000000000000000000000000000000000000000000000000000008152600401611e3790613477565b60405180910390fd5b60018260040160006101000a81548160ff0219169083151502179055508160020160009054906101000a900473ffffffffffffffffffffffffffffffffffffffff1673ffffffffffffffffffffffffffffffffffffffff166108fc82600301549081150290604051600060405180830381858888f19350505050158015611ecb573d6000803e3d6000fd5b507f4c028a29bef0a15b89081608496decbbc962362ee3795fb80dd5e5f537fbe446838360020160009054906101000a900473ffffffffffffffffffffffffffffffffffffffff168360030154604051611f2793929190613497565b60405180910390a1505050565b6040518060c001604052806000815260200160008152602001600073ffffffffffffffffffffffffffffffffffffffff16815260200160006002811115611f7e57611f7d6120a9565b5b8152602001600081526020016000151581525090565b604051806101200160405280600081526020016060815260200160008152602001600081526020016000815260200160008152602001600073ffffffffffffffffffffffffffffffffffffffff1681526020016000151581526020016000151581525090565b6000819050919050565b61200d81611ffa565b82525050565b60006040820190506120286000830185612004565b6120356020830184612004565b9392505050565b6000604051905090565b600080fd5b600080fd5b61205981611ffa565b811461206457600080fd5b50565b60008135905061207681612050565b92915050565b60006020828403121561209257612091612046565b5b60006120a084828501612067565b91505092915050565b7f4e487b7100000000000000000000000000000000000000000000000000000000600052602160045260246000fd5b600381106120e9576120e86120a9565b5b50565b60008190506120fa826120d8565b919050565b600061210a826120ec565b9050919050565b61211a816120ff565b82525050565b60006020820190506121356000830184612111565b92915050565b600080fd5b600080fd5b6000601f19601f8301169050919050565b7f4e487b7100000000000000000000000000000000000000000000000000000000600052604160045260246000fd5b61218e82612145565b810181811067ffffffffffffffff821117156121ad576121ac612156565b5b80604052505050565b60006121c061203c565b90506121cc8282612185565b919050565b600067ffffffffffffffff8211156121ec576121eb612156565b5b6121f582612145565b9050602081019050919050565b82818337600083830152505050565b600061222461221f846121d1565b6121b6565b9050828152602081018484840111156122405761223f612140565b5b61224b848285612202565b509392505050565b600082601f8301126122685761226761213b565b5b8135612278848260208601612211565b91505092915050565b60008115159050919050565b61229681612281565b81146122a157600080fd5b50565b6000813590506122b38161228d565b92915050565b600080600080600060a086880312156122d5576122d4612046565b5b600086013567ffffffffffffffff8111156122f3576122f261204b565b5b6122ff88828901612253565b955050602061231088828901612067565b945050604061232188828901612067565b935050606061233288828901612067565b9250506080612343888289016122a4565b9150509295509295909350565b6000806040838503121561236757612366612046565b5b600061237585828601612067565b9250506020612386858286016122a4565b9150509250929050565b600073ffffffffffffffffffffffffffffffffffffffff82169050919050565b60006123bb82612390565b9050919050565b6123cb816123b0565b81146123d657600080fd5b50565b6000813590506123e8816123c2565b92915050565b6000806040838503121561240557612404612046565b5b6000612413858286016123d9565b925050602061242485828601612067565b9150509250929050565b60006020820190506124436000830184612004565b92915050565b61245281611ffa565b82525050565b612461816123b0565b82525050565b612470816120ff565b82525050565b61247f81612281565b82525050565b60c08201600082015161249b6000850182612449565b5060208201516124ae6020850182612449565b5060408201516124c16040850182612458565b5060608201516124d46060850182612467565b5060808201516124e76080850182612449565b5060a08201516124fa60a0850182612476565b50505050565b600060c0820190506125156000830184612485565b92915050565b61252481612281565b82525050565b600060208201905061253f600083018461251b565b92915050565b61254e816123b0565b82525050565b60006020820190506125696000830184612545565b92915050565b6000806040838503121561258657612585612046565b5b600061259485828601612067565b92505060206125a585828601612067565b9150509250929050565b600060c0820190506125c46000830189612004565b6125d16020830188612004565b6125de6040830187612545565b6125eb6060830186612111565b6125f86080830185612004565b61260560a083018461251b565b979650505050505050565b6000806000806080858703121561262a57612629612046565b5b600061263887828801612067565b945050602085013567ffffffffffffffff8111156126595761265861204b565b5b61266587828801612253565b935050604061267687828801612067565b925050606061268787828801612067565b91505092959194509250565b600081519050919050565b600082825260208201905092915050565b60005b838110156126cd5780820151818401526020810190506126b2565b60008484015250505050565b60006126e482612693565b6126ee818561269e565b93506126fe8185602086016126af565b61270781612145565b840191505092915050565b600061012082019050612728600083018c612004565b818103602083015261273a818b6126d9565b9050612749604083018a612004565b6127566060830189612004565b6127636080830188612004565b61277060a0830187612004565b61277d60c0830186612545565b61278a60e083018561251b565b61279861010083018461251b565b9a9950505050505050505050565b6000602082840312156127bc576127bb612046565b5b60006127ca848285016123d9565b91505092915050565b600081519050919050565b600082825260208201905092915050565b6000819050602082019050919050565b600061280b8383612449565b60208301905092915050565b6000602082019050919050565b600061282f826127d3565b61283981856127de565b9350612844836127ef565b8060005b8381101561287557815161285c88826127ff565b975061286783612817565b925050600181019050612848565b5085935050505092915050565b6000602082019050818103600083015261289c8184612824565b905092915050565b600081519050919050565b600082825260208201905092915050565b6000819050602082019050919050565b600082825260208201905092915050565b60006128ec82612693565b6128f681856128d0565b93506129068185602086016126af565b61290f81612145565b840191505092915050565b6000610120830160008301516129336000860182612449565b506020830151848203602086015261294b82826128e1565b91505060408301516129606040860182612449565b5060608301516129736060860182612449565b5060808301516129866080860182612449565b5060a083015161299960a0860182612449565b5060c08301516129ac60c0860182612458565b5060e08301516129bf60e0860182612476565b506101008301516129d4610100860182612476565b508091505092915050565b60006129eb838361291a565b905092915050565b6000602082019050919050565b6000612a0b826128a4565b612a1581856128af565b935083602082028501612a27856128c0565b8060005b85811015612a635784840389528151612a4485826129df565b9450612a4f836129f3565b925060208a01995050600181019050612a2b565b50829750879550505050505092915050565b60006020820190508181036000830152612a8f8184612a00565b905092915050565b7f4f6e6c7920746865206f776e65722063616e20706572666f726d20746869732060008201527f616374696f6e0000000000000000000000000000000000000000000000000000602082015250565b6000612af360268361269e565b9150612afe82612a97565b604082019050919050565b60006020820190508181036000830152612b2281612ae6565b9050919050565b7f506f6c696379206d75737420626520696e61637469766520746f20697373756560008201527f206120726566756e640000000000000000000000000000000000000000000000602082015250565b6000612b8560298361269e565b9150612b9082612b29565b604082019050919050565b60006020820190508181036000830152612bb481612b78565b9050919050565b6000604082019050612bd06000830185612004565b612bdd6020830184612545565b9392505050565b7f4e487b7100000000000000000000000000000000000000000000000000000000600052601160045260246000fd5b6000612c1e82611ffa565b91507fffffffffffffffffffffffffffffffffffffffffffffffffffffffffffffffff8203612c5057612c4f612be4565b5b600182019050919050565b7f4e487b7100000000000000000000000000000000000000000000000000000000600052602260045260246000fd5b60006002820490506001821680612ca257607f821691505b602082108103612cb557612cb4612c5b565b5b50919050565b60008190508160005260206000209050919050565b60006020601f8301049050919050565b600082821b905092915050565b600060088302612d1d7fffffffffffffffffffffffffffffffffffffffffffffffffffffffffffffffff82612ce0565b612d278683612ce0565b95508019841693508086168417925050509392505050565b6000819050919050565b6000612d64612d5f612d5a84611ffa565b612d3f565b611ffa565b9050919050565b6000819050919050565b612d7e83612d49565b612d92612d8a82612d6b565b848454612ced565b825550505050565b600090565b612da7612d9a565b612db2818484612d75565b505050565b5b81811015612dd657612dcb600082612d9f565b600181019050612db8565b5050565b601f821115612e1b57612dec81612cbb565b612df584612cd0565b81016020851015612e04578190505b612e18612e1085612cd0565b830182612db7565b50505b505050565b600082821c905092915050565b6000612e3e60001984600802612e20565b1980831691505092915050565b6000612e578383612e2d565b9150826002028217905092915050565b612e7082612693565b67ffffffffffffffff811115612e8957612e88612156565b5b612e938254612c8a565b612e9e828285612dda565b600060209050601f831160018114612ed15760008415612ebf578287015190505b612ec98582612e4b565b865550612f31565b601f198416612edf86612cbb565b60005b82811015612f0757848901518255600182019150602085019450602081019050612ee2565b86831015612f245784890151612f20601f891682612e2d565b8355505b6001600288020188555050505b505050505050565b6000608082019050612f4e6000830187612004565b8181036020830152612f6081866126d9565b9050612f6f6040830185612004565b612f7c6060830184612004565b95945050505050565b7f436c61696d2068617320616c7265616479206265656e2070726f636573736564600082015250565b6000612fbb60208361269e565b9150612fc682612f85565b602082019050919050565b60006020820190508181036000830152612fea81612fae565b9050919050565b60006040820190506130066000830185612004565b6130136020830184612111565b9392505050565b7f43616c6c6572206973206e6f742074686520706f6c696379686f6c6465720000600082015250565b6000613050601e8361269e565b915061305b8261301a565b602082019050919050565b6000602082019050818103600083015261307f81613043565b9050919050565b7f506f6c696379206973206e6f742072656e657761626c65000000000000000000600082015250565b60006130bc60178361269e565b91506130c782613086565b602082019050919050565b600060208201905081810360008301526130eb816130af565b9050919050565b7f496e636f72726563742072656e6577616c207072656d69756d00000000000000600082015250565b600061312860198361269e565b9150613133826130f2565b602082019050919050565b600060208201905081810360008301526131578161311b565b9050919050565b600061316982611ffa565b915061317483611ffa565b925082820190508082111561318c5761318b612be4565b5b92915050565b600061319d82611ffa565b91506131a883611ffa565b92508282039050818111156131c0576131bf612be4565b5b92915050565b7f506f6c696379206d7573742062652061637469766520746f207375626d69742060008201527f6120636c61696d00000000000000000000000000000000000000000000000000602082015250565b600061322260278361269e565b915061322d826131c6565b604082019050919050565b6000602082019050818103600083015261325181613215565b9050919050565b600060608201905061326d6000830186612004565b61327a6020830185612004565b6132876040830184612545565b949350505050565b7f506f6c696379206973207374696c6c2061637469766500000000000000000000600082015250565b60006132c560168361269e565b91506132d08261328f565b602082019050919050565b600060208201905081810360008301526132f4816132b8565b9050919050565b7f496e636f7272656374207072656d69756d20616d6f756e740000000000000000600082015250565b600061333160188361269e565b915061333c826132fb565b602082019050919050565b6000602082019050818103600083015261336081613324565b9050919050565b7f506f6c69637920697320616c7265616479206163746976650000000000000000600082015250565b600061339d60188361269e565b91506133a882613367565b602082019050919050565b600060208201905081810360008301526133cc81613390565b9050919050565b60006040820190506133e86000830185612004565b6133f5602083018461251b565b9392505050565b7f4e487b7100000000000000000000000000000000000000000000000000000000600052603260045260246000fd5b7f436c61696d20686173206e6f74206265656e20617070726f7665640000000000600082015250565b6000613461601b8361269e565b915061346c8261342b565b602082019050919050565b6000602082019050818103600083015261349081613454565b9050919050565b60006060820190506134ac6000830186612004565b6134b96020830185612545565b6134c66040830184612004565b94935050505056fea26469706673582212201472de5767d9fa48721dd7e33864113c080b14b018f35465448420f6785ffc4a64736f6c634300081b0033",
  "linkReferences": {},
  "deployedLinkReferences": {}
}